:1000000001C21BC21AC219C218C217C216C215C237
:1000100014C213C212C211C210C20FC20EC20DC24C
:100020000CC20BC20AC2000000000000002F00003A
:100030000007000700147F147F14242A7F2A12323D
:100040003408162636495522500005030000001CCE
:100050002241000041221C0014083E081408083EFA
:1000600008080000503000101010101000606000F0
:100070000020100804023E5149453E00427F4000E6
:1000800042615149462141454B311814127F1027D6
:10009000454545393C4A494930017109050336490E
:1000A000494936064949291E0036360000005636B1
:1000B00000000814224100141414141400412214E6
:1000C000080201510906324959513E7E1111117E33
:1000D0007F494949363E414141227F4141221C7FAF
:1000E000494949417F090909013E4149497A7F0847
:1000F00008087F00417F41002040413F017F0814F4
:1001000022417F404040407F020C027F7F04081064
:100110007F3E4141413E7F090909063E4151215E32
:100120007F09192946464949493101017F01013FAB
:100130004040403F1F2040201F3F4038403F631455
:1001400008146307087008076151494543007F415F
:100150004100552A552A550041417F000402010201
:1001600004404040404000010204002054545478B0
:100170007F484444383844444420384444487F3815
:1001800054545418087E0901020C5252523E7F0802
:1001900004047800447D40002040443D007F102846
:1001A000440000417F40007C041804787C0804046B
:1001B0007838444444387C14141408081414187C07
:1001C0007C080404084854545420043F4440203C14
:1001D0004040207C1C2040201C3C4030403C4428B7
:1001E0001028440C5050503C4464544C44007F3E12
:1001F0001C08081C3E7F00087C7E7C08103E7E3E6A
:10020000103E3E3E3E3E007F3E1C08FF01010101C4
:100210000181C1C1C1E1F1F1F989010101010101CE
:1002200001010101010101010101FFFFFFFFFFFFCA
:10023000FFFFFFFFFFFFFFFFFF7F37070F1F1F3F7E
:100240003F7FFFFFFFFFFF010101010101C1C181EC
:100250008181818181818181C1C101010101FFFF12
:1002600000E0F8FCFFFFFFFFFFFFFFFF7F7B7F3811
:100270000000000000000000000000000000FFFF80
:10028000FFFFFFFFFFFFFFFFFFFFFFFFC7808400AF
:100290000000000000000001071FFF000000000038
:1002A00000FFFFC101010101010101010303000081
:1002B0000000FFFF00FFFFFFFFFFFFFFFFFFFFFF4B
:1002C000FFFEFEFCFCF8E0C00000000000000000A3
:1002D0000000FFFFFFFFFFFFFFFFFF7F1F0F070370
:1002E0000301000000000000000000000000FF000B
:1002F0000000000000E0F018180C0C0C0C0C183872
:10030000F0C000000000FFFF00000FFFFFFFFFFF35
:10031000FFFFFFFFFFFFFFFFFFFFFFFFFFFCE0000E
:10032000000000000000FFFFFFFFFFFFFF1F0300B2
:1003300000000000000000000000000000000000BD
:10034000F0FFFF000000000000871F180000000001
:10035000000018181F8700000000FFFF00000003C6
:10036000FFFFFFFFFFFFFFFFFFFFFFFFFFFFFFFF9D
:10037000FFFFFF00000000000000FFFFFFFFFFFF86
:10038000FF0000000000000000000000000000006E
:10039000000000FCFFFFFF0000000000007FFF03E3
:1003A0000303534343530303FF7F00000000FFFF99
:1003B00080809C9E9F9F879F9F9F9F9F9F9F9F9FA7
:1003C0009F9F9F9F9F9F9F9C9C9C9C9C9C9CE3E3CA
:1003D000E3E3E3E3E3E0E0E0E0E0E0E0E0E0E0E00E
:1003E000E0E0E0E0F8E0E0E1E3FFFF808080808093
:1003F00080808183838686868686838381808080D1
:100400008080FF0011241FBECFE5D4E0DEBFCDBF4A
:1004100010E0A0E6B0E0EAE6F1E102C005900D923E
:10042000A039B107D9F710E0A0E9B0E001C01D92F2
:10043000A13AB107E1F7C5D296C6E2CDFC01208111
:1004400081E090E002C0880F991F6A95E2F741159C
:10045000510519F0282B20830895809582238083ED
:10046000089570E09B01220F331F260F371F220FC4
:10047000331F54E5459FA0011124240F351FFC01B3
:10048000308B2787089524E5429FA0011124460F51
:10049000511DFC01508B47870895EF92FF920F93F7
:1004A0001F93CF93DF938C01D62FC42FFC0183853C
:1004B00094850197638141E050E0C0DFF8018185B8
:1004C00092850197628141E050E0B8DFF8018581B3
:1004D0009681608140E050E0B1DFF801818592852E
:1004E00041E050E0C13011F040E050E0F80162819D
:1004F000A5DFA7E0EA2EF12CCD2FD0E0AE010E2C27
:1005000002C0559547950A94E2F741705070F80182
:1005100083859485638192DFF80185859685648162
:1005200041E050E08BDFF80185859685648140E0ED
:1005300050E084DF0894E108F108FFEFEF16FFEFC9
:10054000FF06E1F6F80185819681608141E050E087
:1005500075DFF801838594850197638140E050E061
:100560006DDFF801818592850197628140E050E05E
:1005700065DFF80183859485638141E050E05EDFAB
:10058000F80181859285628141E050E057DFDF917B
:10059000CF911F910F91FF90EF9008951F93CF93EC
:1005A000DF93EC01CB0164E570E0E8D2162F682FF1
:1005B0006068CE0140E071DF612F6064CE0140E0F1
:1005C0006CDFDF91CF911F910895EF92FF920F930F
:1005D0001F93CF93DF938C01E62EFC014785508952
:1005E000FAE06F1769F49A012C5A3F4FCA0164E58B
:1005F00070E0D8D2281B390BF801308B278727C031
:10060000BA01CCDFC0E0D0E06E2D70E060527040E7
:100610007B01EE0CFF1CEE0CFF1CE60EF71EFE012C
:10062000EE0DFF1DEA5DFF4F6491660FC80141E0CA
:1006300034DF2196C530D10591F7C80160E041E073
:100640002CDFF801878590890696908B8787DF914C
:10065000CF911F910F91FF90EF9008950F931F93EB
:10066000CF93DF938C01EB0102C0C801AEDF69912B
:100670006623D9F7DF91CF911F910F910895CF9302
:10068000DF93CDB7DEB7C050D1400FB6F894DEBFD0
:100690000FBECDBF9E01275F3E4FCE0101966FEF8B
:1006A00070E0C95FDE4F48815981C750D1408DD27B
:1006B000CB5FDE4F88819981C550D140BE016F5F0D
:1006C0007F4FCCDFC050DF4F0FB6F894DEBF0FBEB8
:1006D000CDBFDF91CF910895EF92FF920F931F93BB
:1006E000CF93DF938C01C4E56C9FE00111247E0160
:1006F000E20EF11CC40FD11DBE0150DF05C0C801C0
:1007000060E041E0CADE2196CE15DF05C0F3DF913F
:10071000CF911F910F91FF90EF90089540E024E555
:10072000DBDF08950F931F93CF93DF938C01FC01C0
:10073000108A178660E070E031DFC8EFD1E0C801B1
:1007400060E041E0AADE2197D1F7DF91CF911F91C0
:100750000F9108956F927F928F92AF92BF92CF9236
:10076000EF92FF920F93CF93DF93CDB7DEB73C01AB
:10077000FB01C901602FD3011696FC93EE931597E8
:100780004C9318963C932E93179711960C931197B0
:100790001A96FC92EE9219971296CC9212971C968A
:1007A000BC92AE921B9713968C9213972E853F8521
:1007B0001E963C932E931D97288914962C9341E006
:1007C00050E03CDEF301878190850197618141E033
:1007D00050E034DED30115968D919C9116970197C8
:1007E0006C9141E050E02ADEF3018185928501970A
:1007F000628141E050E022DED3011B968D919C91F5
:100800001C97019713966C9141E050E017DEF301BD
:10081000858596850197648141E050E00FDE8FE584
:100820009AEE0197F1F700C00000D30117968D9161
:100830009C91189711966C9140E050E0FFDD8FEF8E
:100840009FE1A3E081509040A040E1F700C000008C
:10085000D30117968D919C91189711966C9141E058
:1008600050E0ECDDF30185819681608140E050E04D
:10087000E5DDC30161E240E010DEC30168EC40E069
:100880000CDEC30166E040E008DEC30163E140E046
:1008900004DEC30160E240E000DEC3016CE040E042
:1008A000FCDDC3013FDFC30161E240E0F6DDC301CF
:1008B00060EC40E0F2DDC30160E240E0EEDDDF919C
:1008C000CF910F91FF90EF90CF90BF90AF908F900E
:1008D0007F906F9008951F93CF93DF93EC01162FB5
:1008E0002F853889B9015ADECE01612F41E0D5DD6F
:1008F0008F8598890196988B8F87DF91CF911F9173
:100900000895FC012785308921503040308B27879E
:100910000895EF92FF920F931F93CF93DF938C0173
:100920007B01FC01108A1786C0E0D0E0F701EC0FD4
:10093000FD1F6491C801CFDF2196F1E0C83FDF07BA
:10094000A9F7DF91CF911F910F91FF90EF9008953C
:10095000EF92FF920F931F93CF93DF93EC01142F2D
:100960007901942F96959695969584E5989FC00168
:100970001124860F911D64E570E014D1062F682FB5
:100980006068CE0140E089DD602F6064CE0140E008
:1009900084DDE114F10451F0177061E070E002C0F1
:1009A000660F771F1A95E2F7CE0102C0CE0160E014
:1009B00041E073DDDF91CF911F910F91FF90EF9098
:1009C00008958FEF91EEA4E081509040A040E1F7B0
:1009D00000C0000000D00F9288E390E0ADB7BEB732
:1009E00012969C938E93119784E013968C9380E9D2
:1009F00090E068E370E040E028E330E001E058E395
:100A0000E52EF12CE2E0CE2EF8E3AF2EB12CC3E0C0
:100A10008C2EA0DE0F900F900F90D0E9ED2ED0E03D
:100A2000FD2E1AE0C12ED12C00E6A02E00E0B02E43
:100A300040E3842E912C80E990E06BE072E069DF66
:100A40008FEF97EAA1E681509040A040E1F700C007
:100A5000000080E990E066DE00E010E01EC080E962
:100A600090E0602F4C2FFDDCCE01800F911FB6016E
:100A700099D0682F605D80E990E0A7DDAFE3BCE925
:100A80001197F1F700C000002196C630D10539F763
:100A90000F5F1F4F0E30110519F0C0E0D0E0DFCF1F
:100AA0008FEF97EAA1E681509040A040E1F700C0A7
:100AB000000080E990E036DECAE0D0E080E990E016
:100AC00060E041E0CEDC00D000D000D0EDB7FEB752
:100AD0003196ADB7BEB71296FC92EE921197B382E3
:100AE000A282D583C483CBDD8FEF93ECA9E0815044
:100AF0009040A040E1F700C000002197ADB7BEB71D
:100B000016960FB6F894BEBF0FBEADBF2097B1F6D4
:100B10008FEF97EAA1E681509040A040E1F700C036
:100B2000000080E990E0FEDDC0E0D0E080E990E0E8
:100B30006C2F40E021E030E00BDFCC9FC001CD9F67
:100B4000900DDC9F900D1124B4012CD0482F80E92A
:100B500090E06C2F21E030E0FBDE2196C435D1051A
:100B600029F78FEF97EAA1E681509040A040E1F786
:100B700000C0000080E990E0D5DD5DCFAA1BBB1B63
:100B800051E107C0AA1FBB1FA617B70710F0A61B8D
:100B9000B70B881F991F5A95A9F780959095BC01AE
:100BA000CD01089597FB092E07260AD077FD04D0C2
:100BB000E5DF06D000201AF4709561957F4F089507
:100BC000F6F7909581959F4F0895AEE0B0E0EAEE7C
:100BD000F5E0A0C28C0186E08C831A83098377FF3D
:100BE00002C060E070E8615070407E836D83CE018A
:100BF0000196BA01A90111D04D815E8157FD0AC04D
:100C00002F813885421753070CF49A01020F131FE6
:100C1000F80110822E96E4E099C2ADE0B0E0E2E186
:100C2000F6E06AC23C017D876C875A01FC0117829D
:100C30001682838181FFBBC12E010894411C511C87
:100C4000F3019381EC85FD8593FD859193FF81915F
:100C5000FD87EC87882309F4A6C1853241F493FD12
:100C6000859193FF8191FD87EC87853221F490E097
:100C7000B301B8D1E5CFFF24EE2410E01032B0F478
:100C80008B3269F08C3228F4803251F0833271F467
:100C90000BC08D3239F0803349F411602CC01260E2
:100CA000146029C0186027C0106125C017FD2EC030
:100CB000282F20532A3098F416FF08C08F2D880F54
:100CC000F82EFF0CFF0CF80EF20E15C08E2D880FBB
:100CD000E82EEE0CEE0CE80EE20E10620CC08E3226
:100CE00021F416FD60C1106406C08C3611F4106842
:100CF00002C0883659F4EC85FD8593FD859193FFFC
:100D00008191FD87EC87882309F0B8CF982F9554FF
:100D1000933018F09052933038F424E030E0A20E73
:100D2000B31E3FE339830FC0833631F0833781F040
:100D3000833509F056C021C0F5018081898322E006
:100D400030E0A20EB31E21E0C22ED12C420113C00E
:100D500092E0292E312C2A0C3B1CF50180809180D9
:100D600016FF03C06F2D70E002C06FEF7FEFC4016C
:100D70002ED16C0151011F7714C082E0282E312C36
:100D80002A0C3B1CF5018080918016FF03C06F2D5B
:100D900070E002C06FEF7FEFC4010ED16C011068EC
:100DA000510113FD1AC005C080E290E0B3011AD1D1
:100DB000EA948E2D90E0C816D906B0F30EC0F40167
:100DC00017FD859117FF81914F0190E0B3010AD182
:100DD000E110EA940894C108D108C114D10479F74C
:100DE000DFC0843611F0893649F5F50117FF07C0D9
:100DF00080819181A281B38124E030E008C08081AC
:100E00009181AA2797FDA095BA2F22E030E0A20E8B
:100E1000B31E012F0F76B7FF08C0B095A09590952F
:100E200081959F4FAF4FBF4F0068BC01CD01A2011C
:100E30002AE030E003D1D82ED4183EC0853721F403
:100E40001F7E2AE030E020C0197F8F36A9F080375E
:100E500020F4883509F0A7C00BC0803721F088370F
:100E600009F0A1C001C0106114FF09C0146007C0DF
:100E700014FF08C0166006C028E030E005C020E17D
:100E800030E002C020E132E0F50117FF07C06081C9
:100E900071818281938144E050E006C0608171815C
:100EA00080E090E042E050E0A40EB51EA201C6D062
:100EB000D82ED418012F0F7706FF09C00E7FDF143C
:100EC00030F404FF06C002FD04C00F7E02C01D2DD9
:100ED00001C01F2D802F90E004FF0CC0FE01ED0D1E
:100EE000F11D2081203311F4097E09C002FF06C0E4
:100EF0001E5F05C086789070009709F01F5F802EF6
:100F0000992403FD11C000FF0CC0FD2C1E1548F4F0
:100F1000FE0CF11A1E2D05C080E290E0B30162D0F4
:100F20001F5F1E15C8F304C01E1510F4E11A01C09E
:100F3000EE2484FE0EC080E390E0B30153D082FE25
:100F40001DC081FE03C088E590E010C088E790E0F6
:100F50000DC0C40186789070009781F081FC02C0BA
:100F600080E201C08BE207FD8DE290E0B3013AD050
:100F700005C080E390E0B30135D0FA94DF14C8F3E4
:100F8000DA94F201ED0DF11D808190E0B3012AD0D9
:100F9000DD20B1F705C080E290E0B30123D0EA94F0
:100FA000EE20C9F74DCEF3018681978102C08FEF05
:100FB0009FEF2D96E2E1BCC0FC01059061507040AE
:100FC0000110D8F7809590958E0F9F1F0895FC0112
:100FD0006150704001900110D8F7809590958E0F68
:100FE0009F1F08950F931F93CF93DF938C01EB0105
:100FF0008B8181FF1BC082FF0DC02E813F818C81C0
:101000009D812817390764F4E881F9810193F983F8
:10101000E88306C0E885F985802F0995009731F4AB
:101020008E819F8101969F838E8302C00FEF1FEFF9
:10103000C801DF91CF911F910F910895FA01AA275E
:10104000283051F1203181F1E8946F936E7F6E5F0B
:101050007F4F8F4F9F4FAF4FB1E03ED0B4E03CD0B9
:10106000670F781F891F9A1FA11D680F791F8A1F9C
:10107000911DA11D6A0F711D811D911DA11D20D003
:1010800009F468943F912AE0269F11243019305DBD
:101090003193DEF6CF010895462F4770405D4193AE
:1010A000B3E00FD0C9F7F6CF462F4F70405D4A33FB
:1010B00018F0495D31FD4052419302D0A9F7EACFC3
:1010C000B4E0A6959795879577956795BA95C9F7F2
:1010D00000976105710508959B01AC010A2E0694E5
:1010E0005795479537952795BA95C9F7620F731F9E
:1010F000841F951FA01D08952F923F924F925F92DB
:101100006F927F928F929F92AF92BF92CF92DF9217
:10111000EF92FF920F931F93CF93DF93CDB7DEB77C
:10112000CA1BDB0B0FB6F894DEBF0FBECDBF099410
:101130002A88398848885F846E847D848C849B8467
:10114000AA84B984C884DF80EE80FD800C811B8175
:10115000AA81B981CE0FD11D0FB6F894DEBF0FBEA4
:0A116000CDBFED010895F894FFCF14
:10116A0020202030302E30302E25303264202020AE
:10117A000A2020706F636B65746D61676963200A6A
:10118A0020202020202E6E657420202020200000A0
:00000001FF
